{
  "contractName": "FederationManager",
  "abi": [
    {
      "inputs": [
        {
          "internalType": "address payable",
          "name": "_tokenAddress",
          "type": "address"
        }
      ],
      "stateMutability": "nonpayable",
      "type": "constructor"
    },
    {
      "inputs": [
        {
          "internalType": "address",
          "name": "owner",
          "type": "address"
        }
      ],
      "name": "OwnableInvalidOwner",
      "type": "error"
    },
    {
      "inputs": [
        {
          "internalType": "address",
          "name": "account",
          "type": "address"
        }
      ],
      "name": "OwnableUnauthorizedAccount",
      "type": "error"
    },
    {
      "anonymous": false,
      "inputs": [
        {
          "indexed": true,
          "internalType": "address",
          "name": "previousOwner",
          "type": "address"
        },
        {
          "indexed": true,
          "internalType": "address",
          "name": "newOwner",
          "type": "address"
        }
      ],
      "name": "OwnershipTransferred",
      "type": "event"
    },
    {
      "inputs": [],
      "name": "owner",
      "outputs": [
        {
          "internalType": "address",
          "name": "",
          "type": "address"
        }
      ],
      "stateMutability": "view",
      "type": "function"
    },
    {
      "inputs": [],
      "name": "renounceOwnership",
      "outputs": [],
      "stateMutability": "nonpayable",
      "type": "function"
    },
    {
      "inputs": [
        {
          "internalType": "string",
          "name": "",
          "type": "string"
        },
        {
          "internalType": "address",
          "name": "",
          "type": "address"
        }
      ],
      "name": "taskShareRatios",
      "outputs": [
        {
          "internalType": "uint256",
          "name": "",
          "type": "uint256"
        }
      ],
      "stateMutability": "view",
      "type": "function"
    },
    {
      "inputs": [
        {
          "internalType": "string",
          "name": "",
          "type": "string"
        }
      ],
      "name": "tasks",
      "outputs": [
        {
          "internalType": "string",
          "name": "taskId",
          "type": "string"
        },
        {
          "internalType": "address",
          "name": "creator",
          "type": "address"
        },
        {
          "internalType": "string",
          "name": "modelHash",
          "type": "string"
        },
        {
          "internalType": "uint256",
          "name": "rewardPool",
          "type": "uint256"
        },
        {
          "internalType": "bool",
          "name": "isCompleted",
          "type": "bool"
        }
      ],
      "stateMutability": "view",
      "type": "function"
    },
    {
      "inputs": [],
      "name": "token",
      "outputs": [
        {
          "internalType": "contract HyperCoin",
          "name": "",
          "type": "address"
        }
      ],
      "stateMutability": "view",
      "type": "function"
    },
    {
      "inputs": [
        {
          "internalType": "address",
          "name": "newOwner",
          "type": "address"
        }
      ],
      "name": "transferOwnership",
      "outputs": [],
      "stateMutability": "nonpayable",
      "type": "function"
    },
    {
      "inputs": [
        {
          "internalType": "string",
          "name": "_taskId",
          "type": "string"
        },
        {
          "internalType": "uint256",
          "name": "_rewardPool",
          "type": "uint256"
        }
      ],
      "name": "createTask",
      "outputs": [],
      "stateMutability": "nonpayable",
      "type": "function"
    },
    {
      "inputs": [
        {
          "internalType": "string",
          "name": "_taskId",
          "type": "string"
        },
        {
          "internalType": "address[]",
          "name": "_users",
          "type": "address[]"
        },
        {
          "internalType": "uint256[]",
          "name": "_ratios",
          "type": "uint256[]"
        },
        {
          "internalType": "string",
          "name": "_modelHash",
          "type": "string"
        }
      ],
      "name": "setContributionRatios",
      "outputs": [],
      "stateMutability": "nonpayable",
      "type": "function"
    },
    {
      "inputs": [
        {
          "internalType": "string",
          "name": "_taskId",
          "type": "string"
        },
        {
          "internalType": "uint256",
          "name": "_amount",
          "type": "uint256"
        }
      ],
      "name": "distributeRevenue",
      "outputs": [],
      "stateMutability": "nonpayable",
      "type": "function"
    }
  ],
  "bytecode": "0x60806040523480156200001157600080fd5b50604051620019e0380380620019e0833981810160405281019062000037919062000235565b33600073ffffffffffffffffffffffffffffffffffffffff168173ffffffffffffffffffffffffffffffffffffffff1603620000ad5760006040517f1e4fbdf7000000000000000000000000000000000000000000000000000000008152600401620000a491906200028c565b60405180910390fd5b620000be816200010760201b60201c565b5080600160006101000a81548173ffffffffffffffffffffffffffffffffffffffff021916908373ffffffffffffffffffffffffffffffffffffffff16021790555050620002a9565b60008060009054906101000a900473ffffffffffffffffffffffffffffffffffffffff169050816000806101000a81548173ffffffffffffffffffffffffffffffffffffffff021916908373ffffffffffffffffffffffffffffffffffffffff1602179055508173ffffffffffffffffffffffffffffffffffffffff168173ffffffffffffffffffffffffffffffffffffffff167f8be0079c531659141344cd1fd0a4f28419497f9722a3daafe3b4186f6b6457e060405160405180910390a35050565b600080fd5b600073ffffffffffffffffffffffffffffffffffffffff82169050919050565b6000620001fd82620001d0565b9050919050565b6200020f81620001f0565b81146200021b57600080fd5b50565b6000815190506200022f8162000204565b92915050565b6000602082840312156200024e576200024d620001cb565b5b60006200025e848285016200021e565b91505092915050565b60006200027482620001d0565b9050919050565b620002868162000267565b82525050565b6000602082019050620002a360008301846200027b565b92915050565b61172780620002b96000396000f3fe608060405234801561001057600080fd5b50600436106100935760003560e01c8063715018a611610066578063715018a6146101345780637d3436351461013e5780638da5cb5b1461015a578063f2fde38b14610178578063fc0c546a1461019457610093565b806304fe2b34146100985780630ac9cdd9146100b4578063334891c7146100d057806358709cf214610100575b600080fd5b6100b260048036038101906100ad9190610bcf565b6101b2565b005b6100ce60048036038101906100c99190610bcf565b610254565b005b6100ea60048036038101906100e59190610c89565b61045e565b6040516100f79190610cf4565b60405180910390f35b61011a60048036038101906101159190610d0f565b610499565b60405161012b959493929190610e01565b60405180910390f35b61013c610622565b005b61015860048036038101906101539190610fed565b610636565b005b6101626107d9565b60405161016f91906110c4565b60405180910390f35b610192600480360381019061018d91906110df565b610802565b005b61019c610888565b6040516101a9919061116b565b60405180910390f35b60006003836040516101c491906111c2565b90815260200160405180910390209050828160000190816101e591906113db565b50338160010160006101000a81548173ffffffffffffffffffffffffffffffffffffffff021916908373ffffffffffffffffffffffffffffffffffffffff16021790555081816003018190555060008160040160006101000a81548160ff021916908315150217905550505050565b600060038360405161026691906111c2565b908152602001604051809103902090508060040160009054906101000a900460ff166102c7576040517f08c379a00000000000000000000000000000000000000000000000000000000081526004016102be906114f9565b60405180910390fd5b60005b81600501805490508110156104585760008260050182815481106102f1576102f0611519565b5b9060005260206000200160009054906101000a900473ffffffffffffffffffffffffffffffffffffffff169050600061271060028760405161033391906111c2565b908152602001604051809103902060008473ffffffffffffffffffffffffffffffffffffffff1673ffffffffffffffffffffffffffffffffffffffff168152602001908152602001600020548661038a9190611577565b61039491906115e8565b9050600081111561044357600160009054906101000a900473ffffffffffffffffffffffffffffffffffffffff1673ffffffffffffffffffffffffffffffffffffffff166323b872dd3384846040518463ffffffff1660e01b81526004016103fe93929190611619565b6020604051808303816000875af115801561041d573d6000803e3d6000fd5b505050506040513d601f19601f82011682018060405250810190610441919061167c565b505b50508080610450906116a9565b9150506102ca565b50505050565b600282805160208101820180518482526020830160208501208183528095505050505050602052806000526040600020600091509150505481565b6003818051602081018201805184825260208301602085012081835280955050505050506000915090508060000180546104d290611208565b80601f01602080910402602001604051908101604052809291908181526020018280546104fe90611208565b801561054b5780601f106105205761010080835404028352916020019161054b565b820191906000526020600020905b81548152906001019060200180831161052e57829003601f168201915b5050505050908060010160009054906101000a900473ffffffffffffffffffffffffffffffffffffffff169080600201805461058690611208565b80601f01602080910402602001604051908101604052809291908181526020018280546105b290611208565b80156105ff5780601f106105d4576101008083540402835291602001916105ff565b820191906000526020600020905b8154815290600101906020018083116105e257829003601f168201915b5050505050908060030154908060040160009054906101000a900460ff16905085565b61062a6108ae565b6106346000610935565b565b61063e6108ae565b600060038560405161065091906111c2565b908152602001604051809103902090508181600201908161067191906113db565b508060050160006106829190610a01565b60005b84518110156107b4578381815181106106a1576106a0611519565b5b60200260200101516002876040516106b991906111c2565b908152602001604051809103902060008784815181106106dc576106db611519565b5b602002602001015173ffffffffffffffffffffffffffffffffffffffff1673ffffffffffffffffffffffffffffffffffffffff168152602001908152602001600020819055508160050185828151811061073957610738611519565b5b60200260200101519080600181540180825580915050600190039060005260206000200160009091909190916101000a81548173ffffffffffffffffffffffffffffffffffffffff021916908373ffffffffffffffffffffffffffffffffffffffff16021790555080806107ac906116a9565b915050610685565b5060018160040160006101000a81548160ff0219169083151502179055505050505050565b60008060009054906101000a900473ffffffffffffffffffffffffffffffffffffffff16905090565b61080a6108ae565b600073ffffffffffffffffffffffffffffffffffffffff168173ffffffffffffffffffffffffffffffffffffffff160361087c5760006040517f1e4fbdf700000000000000000000000000000000000000000000000000000000815260040161087391906110c4565b60405180910390fd5b61088581610935565b50565b600160009054906101000a900473ffffffffffffffffffffffffffffffffffffffff1681565b6108b66109f9565b73ffffffffffffffffffffffffffffffffffffffff166108d46107d9565b73ffffffffffffffffffffffffffffffffffffffff1614610933576108f76109f9565b6040517f118cdaa700000000000000000000000000000000000000000000000000000000815260040161092a91906110c4565b60405180910390fd5b565b60008060009054906101000a900473ffffffffffffffffffffffffffffffffffffffff169050816000806101000a81548173ffffffffffffffffffffffffffffffffffffffff021916908373ffffffffffffffffffffffffffffffffffffffff1602179055508173ffffffffffffffffffffffffffffffffffffffff168173ffffffffffffffffffffffffffffffffffffffff167f8be0079c531659141344cd1fd0a4f28419497f9722a3daafe3b4186f6b6457e060405160405180910390a35050565b600033905090565b5080546000825590600052602060002090810190610a1f9190610a22565b50565b5b80821115610a3b576000816000905550600101610a23565b5090565b6000604051905090565b600080fd5b600080fd5b600080fd5b600080fd5b6000601f19601f8301169050919050565b7f4e487b7100000000000000000000000000000000000000000000000000000000600052604160045260246000fd5b610aa682610a5d565b810181811067ffffffffffffffff82111715610ac557610ac4610a6e565b5b80604052505050565b6000610ad8610a3f565b9050610ae48282610a9d565b919050565b600067ffffffffffffffff821115610b0457610b03610a6e565b5b610b0d82610a5d565b9050602081019050919050565b82818337600083830152505050565b6000610b3c610b3784610ae9565b610ace565b905082815260208101848484011115610b5857610b57610a58565b5b610b63848285610b1a565b509392505050565b600082601f830112610b8057610b7f610a53565b5b8135610b90848260208601610b29565b91505092915050565b6000819050919050565b610bac81610b99565b8114610bb757600080fd5b50565b600081359050610bc981610ba3565b92915050565b60008060408385031215610be657610be5610a49565b5b600083013567ffffffffffffffff811115610c0457610c03610a4e565b5b610c1085828601610b6b565b9250506020610c2185828601610bba565b9150509250929050565b600073ffffffffffffffffffffffffffffffffffffffff82169050919050565b6000610c5682610c2b565b9050919050565b610c6681610c4b565b8114610c7157600080fd5b50565b600081359050610c8381610c5d565b92915050565b60008060408385031215610ca057610c9f610a49565b5b600083013567ffffffffffffffff811115610cbe57610cbd610a4e565b5b610cca85828601610b6b565b9250506020610cdb85828601610c74565b9150509250929050565b610cee81610b99565b82525050565b6000602082019050610d096000830184610ce5565b92915050565b600060208284031215610d2557610d24610a49565b5b600082013567ffffffffffffffff811115610d4357610d42610a4e565b5b610d4f84828501610b6b565b91505092915050565b600081519050919050565b600082825260208201905092915050565b60005b83811015610d92578082015181840152602081019050610d77565b60008484015250505050565b6000610da982610d58565b610db38185610d63565b9350610dc3818560208601610d74565b610dcc81610a5d565b840191505092915050565b610de081610c4b565b82525050565b60008115159050919050565b610dfb81610de6565b82525050565b600060a0820190508181036000830152610e1b8188610d9e565b9050610e2a6020830187610dd7565b8181036040830152610e3c8186610d9e565b9050610e4b6060830185610ce5565b610e586080830184610df2565b9695505050505050565b600067ffffffffffffffff821115610e7d57610e7c610a6e565b5b602082029050602081019050919050565b600080fd5b6000610ea6610ea184610e62565b610ace565b90508083825260208201905060208402830185811115610ec957610ec8610e8e565b5b835b81811015610ef25780610ede8882610c74565b845260208401935050602081019050610ecb565b5050509392505050565b600082601f830112610f1157610f10610a53565b5b8135610f21848260208601610e93565b91505092915050565b600067ffffffffffffffff821115610f4557610f44610a6e565b5b602082029050602081019050919050565b6000610f69610f6484610f2a565b610ace565b90508083825260208201905060208402830185811115610f8c57610f8b610e8e565b5b835b81811015610fb55780610fa18882610bba565b845260208401935050602081019050610f8e565b5050509392505050565b600082601f830112610fd457610fd3610a53565b5b8135610fe4848260208601610f56565b91505092915050565b6000806000806080858703121561100757611006610a49565b5b600085013567ffffffffffffffff81111561102557611024610a4e565b5b61103187828801610b6b565b945050602085013567ffffffffffffffff81111561105257611051610a4e565b5b61105e87828801610efc565b935050604085013567ffffffffffffffff81111561107f5761107e610a4e565b5b61108b87828801610fbf565b925050606085013567ffffffffffffffff8111156110ac576110ab610a4e565b5b6110b887828801610b6b565b91505092959194509250565b60006020820190506110d96000830184610dd7565b92915050565b6000602082840312156110f5576110f4610a49565b5b600061110384828501610c74565b91505092915050565b6000819050919050565b600061113161112c61112784610c2b565b61110c565b610c2b565b9050919050565b600061114382611116565b9050919050565b600061115582611138565b9050919050565b6111658161114a565b82525050565b6000602082019050611180600083018461115c565b92915050565b600081905092915050565b600061119c82610d58565b6111a68185611186565b93506111b6818560208601610d74565b80840191505092915050565b60006111ce8284611191565b915081905092915050565b7f4e487b7100000000000000000000000000000000000000000000000000000000600052602260045260246000fd5b6000600282049050600182168061122057607f821691505b602082108103611233576112326111d9565b5b50919050565b60008190508160005260206000209050919050565b60006020601f8301049050919050565b600082821b905092915050565b60006008830261129b7fffffffffffffffffffffffffffffffffffffffffffffffffffffffffffffffff8261125e565b6112a5868361125e565b95508019841693508086168417925050509392505050565b60006112d86112d36112ce84610b99565b61110c565b610b99565b9050919050565b6000819050919050565b6112f2836112bd565b6113066112fe826112df565b84845461126b565b825550505050565b600090565b61131b61130e565b6113268184846112e9565b505050565b5b8181101561134a5761133f600082611313565b60018101905061132c565b5050565b601f82111561138f5761136081611239565b6113698461124e565b81016020851015611378578190505b61138c6113848561124e565b83018261132b565b50505b505050565b600082821c905092915050565b60006113b260001984600802611394565b1980831691505092915050565b60006113cb83836113a1565b9150826002028217905092915050565b6113e482610d58565b67ffffffffffffffff8111156113fd576113fc610a6e565b5b6114078254611208565b61141282828561134e565b600060209050601f8311600181146114455760008415611433578287015190505b61143d85826113bf565b8655506114a5565b601f19841661145386611239565b60005b8281101561147b57848901518255600182019150602085019450602081019050611456565b868310156114985784890151611494601f8916826113a1565b8355505b6001600288020188555050505b505050505050565b7f5461736b206e6f7420636f6d706c657465640000000000000000000000000000600082015250565b60006114e3601283610d63565b91506114ee826114ad565b602082019050919050565b60006020820190508181036000830152611512816114d6565b9050919050565b7f4e487b7100000000000000000000000000000000000000000000000000000000600052603260045260246000fd5b7f4e487b7100000000000000000000000000000000000000000000000000000000600052601160045260246000fd5b600061158282610b99565b915061158d83610b99565b925082820261159b81610b99565b915082820484148315176115b2576115b1611548565b5b5092915050565b7f4e487b7100000000000000000000000000000000000000000000000000000000600052601260045260246000fd5b60006115f382610b99565b91506115fe83610b99565b92508261160e5761160d6115b9565b5b828204905092915050565b600060608201905061162e6000830186610dd7565b61163b6020830185610dd7565b6116486040830184610ce5565b949350505050565b61165981610de6565b811461166457600080fd5b50565b60008151905061167681611650565b92915050565b60006020828403121561169257611691610a49565b5b60006116a084828501611667565b91505092915050565b60006116b482610b99565b91507fffffffffffffffffffffffffffffffffffffffffffffffffffffffffffffffff82036116e6576116e5611548565b5b60018201905091905056fea26469706673582212203779b910e47bfb6bae4d26772d32d5cf342295b15f11676a9775d2f8c35018e164736f6c63430008150033",
  "immutableReferences": {},
  "source": "// SPDX-License-Identifier: MIT\npragma solidity ^0.8.0;\n\nimport \"./HyperCoin.sol\";\nimport \"@openzeppelin/contracts/access/Ownable.sol\";\n\ncontract FederationManager is Ownable {\n    HyperCoin public token;\n\n    struct Task {\n        string taskId;\n        address creator;\n        string modelHash;\n        uint256 rewardPool;\n        bool isCompleted;\n        address[] participants;\n    }\n\n    // \n    mapping(string => mapping(address => uint256)) public taskShareRatios;\n    mapping(string => Task) public tasks;\n\n    //  Ownable(msg.sender) \n    constructor(address payable _tokenAddress) Ownable(msg.sender) {\n        token = HyperCoin(_tokenAddress);\n    }\n\n    function createTask(string memory _taskId, uint256 _rewardPool) public {\n        Task storage newTask = tasks[_taskId];\n        newTask.taskId = _taskId;\n        newTask.creator = msg.sender;\n        newTask.rewardPool = _rewardPool;\n        newTask.isCompleted = false;\n    }\n\n    function setContributionRatios(\n        string memory _taskId, \n        address[] memory _users, \n        uint256[] memory _ratios,\n        string memory _modelHash\n    ) public onlyOwner {\n        Task storage task = tasks[_taskId];\n        task.modelHash = _modelHash;\n        \n        delete task.participants;\n        for (uint i = 0; i < _users.length; i++) {\n            taskShareRatios[_taskId][_users[i]] = _ratios[i];\n            // \n            task.participants.push(_users[i]);\n        }\n        task.isCompleted = true;\n    }\n\n    // \n    function distributeRevenue(string memory _taskId, uint256 _amount) public {\n        Task storage task = tasks[_taskId];\n        require(task.isCompleted, \"Task not completed\");\n\n        for (uint i = 0; i < task.participants.length; i++) {\n            address user = task.participants[i];\n            uint256 userShare = (_amount * taskShareRatios[_taskId][user]) / 10000;\n            if (userShare > 0) {\n                token.transferFrom(msg.sender, user, userShare);\n            }\n        }\n    }\n}",
  "sourcePath": "E:\\wby\\blockfed_new\\blockchain\\contracts\\FederationManager.sol",
  "compiler": {
    "name": "solc",
    "version": "0.8.21+commit.d9974bed.Emscripten.clang"
  },
  "schemaVersion": "3.4.16",
  "updatedAt": "2026-01-07T06:32:33.500Z",
  "devdoc": {
    "errors": {
      "OwnableInvalidOwner(address)": [
        {
          "details": "The owner is not a valid owner account. (eg. `address(0)`)"
        }
      ],
      "OwnableUnauthorizedAccount(address)": [
        {
          "details": "The caller account is not authorized to perform an operation."
        }
      ]
    },
    "kind": "dev",
    "methods": {
      "owner()": {
        "details": "Returns the address of the current owner."
      },
      "renounceOwnership()": {
        "details": "Leaves the contract without owner. It will not be possible to call `onlyOwner` functions. Can only be called by the current owner. NOTE: Renouncing ownership will leave the contract without an owner, thereby disabling any functionality that is only available to the owner."
      },
      "transferOwnership(address)": {
        "details": "Transfers ownership of the contract to a new account (`newOwner`). Can only be called by the current owner."
      }
    },
    "version": 1
  },
  "userdoc": {
    "kind": "user",
    "methods": {},
    "version": 1
  }
}