{
  "contractName": "HyperCoin",
  "abi": [
    {
      "inputs": [],
      "stateMutability": "nonpayable",
      "type": "constructor"
    },
    {
      "inputs": [
        {
          "internalType": "address",
          "name": "spender",
          "type": "address"
        },
        {
          "internalType": "uint256",
          "name": "allowance",
          "type": "uint256"
        },
        {
          "internalType": "uint256",
          "name": "needed",
          "type": "uint256"
        }
      ],
      "name": "ERC20InsufficientAllowance",
      "type": "error"
    },
    {
      "inputs": [
        {
          "internalType": "address",
          "name": "sender",
          "type": "address"
        },
        {
          "internalType": "uint256",
          "name": "balance",
          "type": "uint256"
        },
        {
          "internalType": "uint256",
          "name": "needed",
          "type": "uint256"
        }
      ],
      "name": "ERC20InsufficientBalance",
      "type": "error"
    },
    {
      "inputs": [
        {
          "internalType": "address",
          "name": "approver",
          "type": "address"
        }
      ],
      "name": "ERC20InvalidApprover",
      "type": "error"
    },
    {
      "inputs": [
        {
          "internalType": "address",
          "name": "receiver",
          "type": "address"
        }
      ],
      "name": "ERC20InvalidReceiver",
      "type": "error"
    },
    {
      "inputs": [
        {
          "internalType": "address",
          "name": "sender",
          "type": "address"
        }
      ],
      "name": "ERC20InvalidSender",
      "type": "error"
    },
    {
      "inputs": [
        {
          "internalType": "address",
          "name": "spender",
          "type": "address"
        }
      ],
      "name": "ERC20InvalidSpender",
      "type": "error"
    },
    {
      "inputs": [
        {
          "internalType": "address",
          "name": "owner",
          "type": "address"
        }
      ],
      "name": "OwnableInvalidOwner",
      "type": "error"
    },
    {
      "inputs": [
        {
          "internalType": "address",
          "name": "account",
          "type": "address"
        }
      ],
      "name": "OwnableUnauthorizedAccount",
      "type": "error"
    },
    {
      "anonymous": false,
      "inputs": [
        {
          "indexed": true,
          "internalType": "address",
          "name": "owner",
          "type": "address"
        },
        {
          "indexed": true,
          "internalType": "address",
          "name": "spender",
          "type": "address"
        },
        {
          "indexed": false,
          "internalType": "uint256",
          "name": "value",
          "type": "uint256"
        }
      ],
      "name": "Approval",
      "type": "event"
    },
    {
      "anonymous": false,
      "inputs": [
        {
          "indexed": true,
          "internalType": "address",
          "name": "previousOwner",
          "type": "address"
        },
        {
          "indexed": true,
          "internalType": "address",
          "name": "newOwner",
          "type": "address"
        }
      ],
      "name": "OwnershipTransferred",
      "type": "event"
    },
    {
      "anonymous": false,
      "inputs": [
        {
          "indexed": true,
          "internalType": "address",
          "name": "from",
          "type": "address"
        },
        {
          "indexed": true,
          "internalType": "address",
          "name": "to",
          "type": "address"
        },
        {
          "indexed": false,
          "internalType": "uint256",
          "name": "value",
          "type": "uint256"
        }
      ],
      "name": "Transfer",
      "type": "event"
    },
    {
      "inputs": [],
      "name": "RATE",
      "outputs": [
        {
          "internalType": "uint256",
          "name": "",
          "type": "uint256"
        }
      ],
      "stateMutability": "view",
      "type": "function"
    },
    {
      "inputs": [
        {
          "internalType": "address",
          "name": "owner",
          "type": "address"
        },
        {
          "internalType": "address",
          "name": "spender",
          "type": "address"
        }
      ],
      "name": "allowance",
      "outputs": [
        {
          "internalType": "uint256",
          "name": "",
          "type": "uint256"
        }
      ],
      "stateMutability": "view",
      "type": "function"
    },
    {
      "inputs": [
        {
          "internalType": "address",
          "name": "spender",
          "type": "address"
        },
        {
          "internalType": "uint256",
          "name": "value",
          "type": "uint256"
        }
      ],
      "name": "approve",
      "outputs": [
        {
          "internalType": "bool",
          "name": "",
          "type": "bool"
        }
      ],
      "stateMutability": "nonpayable",
      "type": "function"
    },
    {
      "inputs": [
        {
          "internalType": "address",
          "name": "account",
          "type": "address"
        }
      ],
      "name": "balanceOf",
      "outputs": [
        {
          "internalType": "uint256",
          "name": "",
          "type": "uint256"
        }
      ],
      "stateMutability": "view",
      "type": "function"
    },
    {
      "inputs": [],
      "name": "decimals",
      "outputs": [
        {
          "internalType": "uint8",
          "name": "",
          "type": "uint8"
        }
      ],
      "stateMutability": "view",
      "type": "function"
    },
    {
      "inputs": [],
      "name": "name",
      "outputs": [
        {
          "internalType": "string",
          "name": "",
          "type": "string"
        }
      ],
      "stateMutability": "view",
      "type": "function"
    },
    {
      "inputs": [],
      "name": "owner",
      "outputs": [
        {
          "internalType": "address",
          "name": "",
          "type": "address"
        }
      ],
      "stateMutability": "view",
      "type": "function"
    },
    {
      "inputs": [],
      "name": "renounceOwnership",
      "outputs": [],
      "stateMutability": "nonpayable",
      "type": "function"
    },
    {
      "inputs": [],
      "name": "symbol",
      "outputs": [
        {
          "internalType": "string",
          "name": "",
          "type": "string"
        }
      ],
      "stateMutability": "view",
      "type": "function"
    },
    {
      "inputs": [],
      "name": "totalSupply",
      "outputs": [
        {
          "internalType": "uint256",
          "name": "",
          "type": "uint256"
        }
      ],
      "stateMutability": "view",
      "type": "function"
    },
    {
      "inputs": [
        {
          "internalType": "address",
          "name": "to",
          "type": "address"
        },
        {
          "internalType": "uint256",
          "name": "value",
          "type": "uint256"
        }
      ],
      "name": "transfer",
      "outputs": [
        {
          "internalType": "bool",
          "name": "",
          "type": "bool"
        }
      ],
      "stateMutability": "nonpayable",
      "type": "function"
    },
    {
      "inputs": [
        {
          "internalType": "address",
          "name": "from",
          "type": "address"
        },
        {
          "internalType": "address",
          "name": "to",
          "type": "address"
        },
        {
          "internalType": "uint256",
          "name": "value",
          "type": "uint256"
        }
      ],
      "name": "transferFrom",
      "outputs": [
        {
          "internalType": "bool",
          "name": "",
          "type": "bool"
        }
      ],
      "stateMutability": "nonpayable",
      "type": "function"
    },
    {
      "inputs": [
        {
          "internalType": "address",
          "name": "newOwner",
          "type": "address"
        }
      ],
      "name": "transferOwnership",
      "outputs": [],
      "stateMutability": "nonpayable",
      "type": "function"
    },
    {
      "stateMutability": "payable",
      "type": "receive"
    },
    {
      "inputs": [],
      "name": "buyTokens",
      "outputs": [],
      "stateMutability": "payable",
      "type": "function"
    },
    {
      "inputs": [
        {
          "internalType": "uint256",
          "name": "_hcAmount",
          "type": "uint256"
        }
      ],
      "name": "sellTokens",
      "outputs": [],
      "stateMutability": "nonpayable",
      "type": "function"
    },
    {
      "inputs": [
        {
          "internalType": "address",
          "name": "to",
          "type": "address"
        },
        {
          "internalType": "uint256",
          "name": "amount",
          "type": "uint256"
        }
      ],
      "name": "faucet",
      "outputs": [],
      "stateMutability": "nonpayable",
      "type": "function"
    },
    {
      "inputs": [
        {
          "internalType": "address",
          "name": "from",
          "type": "address"
        },
        {
          "internalType": "uint256",
          "name": "amount",
          "type": "uint256"
        }
      ],
      "name": "adminReduce",
      "outputs": [],
      "stateMutability": "nonpayable",
      "type": "function"
    }
  ],
  "bytecode": "0x60806040523480156200001157600080fd5b50336040518060400160405280600981526020017f4879706572436f696e00000000000000000000000000000000000000000000008152506040518060400160405280600281526020017f4843000000000000000000000000000000000000000000000000000000000000815250816003908162000090919062000776565b508060049081620000a2919062000776565b505050600073ffffffffffffffffffffffffffffffffffffffff168173ffffffffffffffffffffffffffffffffffffffff16036200011a5760006040517f1e4fbdf7000000000000000000000000000000000000000000000000000000008152600401620001119190620008a2565b60405180910390fd5b6200012b816200017060201b60201c565b506200016a33620001416200023660201b60201c565b600a6200014f919062000a4f565b6103e86200015e919062000aa0565b6200023f60201b60201c565b62000b91565b6000600560009054906101000a900473ffffffffffffffffffffffffffffffffffffffff16905081600560006101000a81548173ffffffffffffffffffffffffffffffffffffffff021916908373ffffffffffffffffffffffffffffffffffffffff1602179055508173ffffffffffffffffffffffffffffffffffffffff168173ffffffffffffffffffffffffffffffffffffffff167f8be0079c531659141344cd1fd0a4f28419497f9722a3daafe3b4186f6b6457e060405160405180910390a35050565b60006012905090565b600073ffffffffffffffffffffffffffffffffffffffff168273ffffffffffffffffffffffffffffffffffffffff1603620002b45760006040517fec442f05000000000000000000000000000000000000000000000000000000008152600401620002ab9190620008a2565b60405180910390fd5b620002c860008383620002cc60201b60201c565b5050565b600073ffffffffffffffffffffffffffffffffffffffff168373ffffffffffffffffffffffffffffffffffffffff16036200032257806002600082825462000315919062000aeb565b92505081905550620003f8565b60008060008573ffffffffffffffffffffffffffffffffffffffff1673ffffffffffffffffffffffffffffffffffffffff16815260200190815260200160002054905081811015620003b1578381836040517fe450d38c000000000000000000000000000000000000000000000000000000008152600401620003a89392919062000b37565b60405180910390fd5b8181036000808673ffffffffffffffffffffffffffffffffffffffff1673ffffffffffffffffffffffffffffffffffffffff16815260200190815260200160002081905550505b600073ffffffffffffffffffffffffffffffffffffffff168273ffffffffffffffffffffffffffffffffffffffff160362000443578060026000828254039250508190555062000490565b806000808473ffffffffffffffffffffffffffffffffffffffff1673ffffffffffffffffffffffffffffffffffffffff168152602001908152602001600020600082825401925050819055505b8173ffffffffffffffffffffffffffffffffffffffff168373ffffffffffffffffffffffffffffffffffffffff167fddf252ad1be2c89b69c2b068fc378daa952ba7f163c4a11628f55a4df523b3ef83604051620004ef919062000b74565b60405180910390a3505050565b600081519050919050565b7f4e487b7100000000000000000000000000000000000000000000000000000000600052604160045260246000fd5b7f4e487b7100000000000000000000000000000000000000000000000000000000600052602260045260246000fd5b600060028204905060018216806200057e57607f821691505b60208210810362000594576200059362000536565b5b50919050565b60008190508160005260206000209050919050565b60006020601f8301049050919050565b600082821b905092915050565b600060088302620005fe7fffffffffffffffffffffffffffffffffffffffffffffffffffffffffffffffff82620005bf565b6200060a8683620005bf565b95508019841693508086168417925050509392505050565b6000819050919050565b6000819050919050565b600062000657620006516200064b8462000622565b6200062c565b62000622565b9050919050565b6000819050919050565b620006738362000636565b6200068b62000682826200065e565b848454620005cc565b825550505050565b600090565b620006a262000693565b620006af81848462000668565b505050565b5b81811015620006d757620006cb60008262000698565b600181019050620006b5565b5050565b601f8211156200072657620006f0816200059a565b620006fb84620005af565b810160208510156200070b578190505b620007236200071a85620005af565b830182620006b4565b50505b505050565b600082821c905092915050565b60006200074b600019846008026200072b565b1980831691505092915050565b600062000766838362000738565b9150826002028217905092915050565b6200078182620004fc565b67ffffffffffffffff8111156200079d576200079c62000507565b5b620007a9825462000565565b620007b6828285620006db565b600060209050601f831160018114620007ee5760008415620007d9578287015190505b620007e5858262000758565b86555062000855565b601f198416620007fe866200059a565b60005b82811015620008285784890151825560018201915060208501945060208101905062000801565b8683101562000848578489015162000844601f89168262000738565b8355505b6001600288020188555050505b505050505050565b600073ffffffffffffffffffffffffffffffffffffffff82169050919050565b60006200088a826200085d565b9050919050565b6200089c816200087d565b82525050565b6000602082019050620008b9600083018462000891565b92915050565b7f4e487b7100000000000000000000000000000000000000000000000000000000600052601160045260246000fd5b60008160011c9050919050565b6000808291508390505b60018511156200094d57808604811115620009255762000924620008bf565b5b6001851615620009355780820291505b80810290506200094585620008ee565b945062000905565b94509492505050565b60008262000968576001905062000a3b565b8162000978576000905062000a3b565b81600181146200099157600281146200099c57620009d2565b600191505062000a3b565b60ff841115620009b157620009b0620008bf565b5b8360020a915084821115620009cb57620009ca620008bf565b5b5062000a3b565b5060208310610133831016604e8410600b841016171562000a0c5782820a90508381111562000a065762000a05620008bf565b5b62000a3b565b62000a1b8484846001620008fb565b9250905081840481111562000a355762000a34620008bf565b5b81810290505b9392505050565b600060ff82169050919050565b600062000a5c8262000622565b915062000a698362000a42565b925062000a987fffffffffffffffffffffffffffffffffffffffffffffffffffffffffffffffff848462000956565b905092915050565b600062000aad8262000622565b915062000aba8362000622565b925082820262000aca8162000622565b9150828204841483151762000ae45762000ae3620008bf565b5b5092915050565b600062000af88262000622565b915062000b058362000622565b925082820190508082111562000b205762000b1f620008bf565b5b92915050565b62000b318162000622565b82525050565b600060608201905062000b4e600083018662000891565b62000b5d602083018562000b26565b62000b6c604083018462000b26565b949350505050565b600060208201905062000b8b600083018462000b26565b92915050565b6117d98062000ba16000396000f3fe6080604052600436106101025760003560e01c806370a082311161009557806395d89b411161006457806395d89b4114610336578063a9059cbb14610361578063d0febe4c1461039e578063dd62ed3e146103a8578063f2fde38b146103e557610111565b806370a082311461028e578063715018a6146102cb5780637b56c2b2146102e25780638da5cb5b1461030b57610111565b8063313ce567116100d1578063313ce567146101e6578063378d04bc14610211578063664e97041461023a5780636c11bcd31461026557610111565b806306fdde0314610116578063095ea7b31461014157806318160ddd1461017e57806323b872dd146101a957610111565b366101115761010f61040e565b005b600080fd5b34801561012257600080fd5b5061012b61046f565b60405161013891906111ae565b60405180910390f35b34801561014d57600080fd5b5061016860048036038101906101639190611269565b610501565b60405161017591906112c4565b60405180910390f35b34801561018a57600080fd5b50610193610524565b6040516101a091906112ee565b60405180910390f35b3480156101b557600080fd5b506101d060048036038101906101cb9190611309565b61052e565b6040516101dd91906112c4565b60405180910390f35b3480156101f257600080fd5b506101fb61055d565b6040516102089190611378565b60405180910390f35b34801561021d57600080fd5b5061023860048036038101906102339190611269565b610566565b005b34801561024657600080fd5b5061024f6105cf565b60405161025c91906112ee565b60405180910390f35b34801561027157600080fd5b5061028c60048036038101906102879190611393565b6105d4565b005b34801561029a57600080fd5b506102b560048036038101906102b091906113c0565b6106c8565b6040516102c291906112ee565b60405180910390f35b3480156102d757600080fd5b506102e0610710565b005b3480156102ee57600080fd5b5061030960048036038101906103049190611269565b610724565b005b34801561031757600080fd5b50610320610742565b60405161032d91906113fc565b60405180910390f35b34801561034257600080fd5b5061034b61076c565b60405161035891906111ae565b60405180910390f35b34801561036d57600080fd5b5061038860048036038101906103839190611269565b6107fe565b60405161039591906112c4565b60405180910390f35b6103a661040e565b005b3480156103b457600080fd5b506103cf60048036038101906103ca9190611417565b610821565b6040516103dc91906112ee565b60405180910390f35b3480156103f157600080fd5b5061040c600480360381019061040791906113c0565b6108a8565b005b60003411610451576040517f08c379a0000000000000000000000000000000000000000000000000000000008152600401610448906114a3565b60405180910390fd5b6000600a3461046091906114f2565b905061046c338261092e565b50565b60606003805461047e90611563565b80601f01602080910402602001604051908101604052809291908181526020018280546104aa90611563565b80156104f75780601f106104cc576101008083540402835291602001916104f7565b820191906000526020600020905b8154815290600101906020018083116104da57829003601f168201915b5050505050905090565b60008061050c6109b0565b90506105198185856109b8565b600191505092915050565b6000600254905090565b6000806105396109b0565b90506105468582856109ca565b610551858585610a5f565b60019150509392505050565b60006012905090565b61056e610b53565b80610578836106c8565b10156105b9576040517f08c379a00000000000000000000000000000000000000000000000000000000081526004016105b0906115e0565b60405180910390fd5b6105cb826105c5610742565b83610a5f565b5050565b600a81565b806105de336106c8565b101561061f576040517f08c379a00000000000000000000000000000000000000000000000000000000081526004016106169061164c565b60405180910390fd5b6000600a8261062e919061169b565b905080471015610673576040517f08c379a000000000000000000000000000000000000000000000000000000000815260040161066a90611718565b60405180910390fd5b61067d3383610bda565b3373ffffffffffffffffffffffffffffffffffffffff166108fc829081150290604051600060405180830381858888f193505050501580156106c3573d6000803e3d6000fd5b505050565b60008060008373ffffffffffffffffffffffffffffffffffffffff1673ffffffffffffffffffffffffffffffffffffffff168152602001908152602001600020549050919050565b610718610b53565b6107226000610c5c565b565b61072c610b53565b61073e610737610742565b8383610a5f565b5050565b6000600560009054906101000a900473ffffffffffffffffffffffffffffffffffffffff16905090565b60606004805461077b90611563565b80601f01602080910402602001604051908101604052809291908181526020018280546107a790611563565b80156107f45780601f106107c9576101008083540402835291602001916107f4565b820191906000526020600020905b8154815290600101906020018083116107d757829003601f168201915b5050505050905090565b6000806108096109b0565b9050610816818585610a5f565b600191505092915050565b6000600160008473ffffffffffffffffffffffffffffffffffffffff1673ffffffffffffffffffffffffffffffffffffffff16815260200190815260200160002060008373ffffffffffffffffffffffffffffffffffffffff1673ffffffffffffffffffffffffffffffffffffffff16815260200190815260200160002054905092915050565b6108b0610b53565b600073ffffffffffffffffffffffffffffffffffffffff168173ffffffffffffffffffffffffffffffffffffffff16036109225760006040517f1e4fbdf700000000000000000000000000000000000000000000000000000000815260040161091991906113fc565b60405180910390fd5b61092b81610c5c565b50565b600073ffffffffffffffffffffffffffffffffffffffff168273ffffffffffffffffffffffffffffffffffffffff16036109a05760006040517fec442f0500000000000000000000000000000000000000000000000000000000815260040161099791906113fc565b60405180910390fd5b6109ac60008383610d22565b5050565b600033905090565b6109c58383836001610f47565b505050565b60006109d68484610821565b90507fffffffffffffffffffffffffffffffffffffffffffffffffffffffffffffffff811015610a595781811015610a49578281836040517ffb8f41b2000000000000000000000000000000000000000000000000000000008152600401610a4093929190611738565b60405180910390fd5b610a5884848484036000610f47565b5b50505050565b600073ffffffffffffffffffffffffffffffffffffffff168373ffffffffffffffffffffffffffffffffffffffff1603610ad15760006040517f96c6fd1e000000000000000000000000000000000000000000000000000000008152600401610ac891906113fc565b60405180910390fd5b600073ffffffffffffffffffffffffffffffffffffffff168273ffffffffffffffffffffffffffffffffffffffff1603610b435760006040517fec442f05000000000000000000000000000000000000000000000000000000008152600401610b3a91906113fc565b60405180910390fd5b610b4e838383610d22565b505050565b610b5b6109b0565b73ffffffffffffffffffffffffffffffffffffffff16610b79610742565b73ffffffffffffffffffffffffffffffffffffffff1614610bd857610b9c6109b0565b6040517f118cdaa7000000000000000000000000000000000000000000000000000000008152600401610bcf91906113fc565b60405180910390fd5b565b600073ffffffffffffffffffffffffffffffffffffffff168273ffffffffffffffffffffffffffffffffffffffff1603610c4c5760006040517f96c6fd1e000000000000000000000000000000000000000000000000000000008152600401610c4391906113fc565b60405180910390fd5b610c5882600083610d22565b5050565b6000600560009054906101000a900473ffffffffffffffffffffffffffffffffffffffff16905081600560006101000a81548173ffffffffffffffffffffffffffffffffffffffff021916908373ffffffffffffffffffffffffffffffffffffffff1602179055508173ffffffffffffffffffffffffffffffffffffffff168173ffffffffffffffffffffffffffffffffffffffff167f8be0079c531659141344cd1fd0a4f28419497f9722a3daafe3b4186f6b6457e060405160405180910390a35050565b600073ffffffffffffffffffffffffffffffffffffffff168373ffffffffffffffffffffffffffffffffffffffff1603610d74578060026000828254610d68919061176f565b92505081905550610e47565b60008060008573ffffffffffffffffffffffffffffffffffffffff1673ffffffffffffffffffffffffffffffffffffffff16815260200190815260200160002054905081811015610e00578381836040517fe450d38c000000000000000000000000000000000000000000000000000000008152600401610df793929190611738565b60405180910390fd5b8181036000808673ffffffffffffffffffffffffffffffffffffffff1673ffffffffffffffffffffffffffffffffffffffff16815260200190815260200160002081905550505b600073ffffffffffffffffffffffffffffffffffffffff168273ffffffffffffffffffffffffffffffffffffffff1603610e905780600260008282540392505081905550610edd565b806000808473ffffffffffffffffffffffffffffffffffffffff1673ffffffffffffffffffffffffffffffffffffffff168152602001908152602001600020600082825401925050819055505b8173ffffffffffffffffffffffffffffffffffffffff168373ffffffffffffffffffffffffffffffffffffffff167fddf252ad1be2c89b69c2b068fc378daa952ba7f163c4a11628f55a4df523b3ef83604051610f3a91906112ee565b60405180910390a3505050565b600073ffffffffffffffffffffffffffffffffffffffff168473ffffffffffffffffffffffffffffffffffffffff1603610fb95760006040517fe602df05000000000000000000000000000000000000000000000000000000008152600401610fb091906113fc565b60405180910390fd5b600073ffffffffffffffffffffffffffffffffffffffff168373ffffffffffffffffffffffffffffffffffffffff160361102b5760006040517f94280d6200000000000000000000000000000000000000000000000000000000815260040161102291906113fc565b60405180910390fd5b81600160008673ffffffffffffffffffffffffffffffffffffffff1673ffffffffffffffffffffffffffffffffffffffff16815260200190815260200160002060008573ffffffffffffffffffffffffffffffffffffffff1673ffffffffffffffffffffffffffffffffffffffff168152602001908152602001600020819055508015611118578273ffffffffffffffffffffffffffffffffffffffff168473ffffffffffffffffffffffffffffffffffffffff167f8c5be1e5ebec7d5bd14f71427d1e84f3dd0314c0f7b2291e5b200ac8c7c3b9258460405161110f91906112ee565b60405180910390a35b50505050565b600081519050919050565b600082825260208201905092915050565b60005b8381101561115857808201518184015260208101905061113d565b60008484015250505050565b6000601f19601f8301169050919050565b60006111808261111e565b61118a8185611129565b935061119a81856020860161113a565b6111a381611164565b840191505092915050565b600060208201905081810360008301526111c88184611175565b905092915050565b600080fd5b600073ffffffffffffffffffffffffffffffffffffffff82169050919050565b6000611200826111d5565b9050919050565b611210816111f5565b811461121b57600080fd5b50565b60008135905061122d81611207565b92915050565b6000819050919050565b61124681611233565b811461125157600080fd5b50565b6000813590506112638161123d565b92915050565b600080604083850312156112805761127f6111d0565b5b600061128e8582860161121e565b925050602061129f85828601611254565b9150509250929050565b60008115159050919050565b6112be816112a9565b82525050565b60006020820190506112d960008301846112b5565b92915050565b6112e881611233565b82525050565b600060208201905061130360008301846112df565b92915050565b600080600060608486031215611322576113216111d0565b5b60006113308682870161121e565b93505060206113418682870161121e565b925050604061135286828701611254565b9150509250925092565b600060ff82169050919050565b6113728161135c565b82525050565b600060208201905061138d6000830184611369565b92915050565b6000602082840312156113a9576113a86111d0565b5b60006113b784828501611254565b91505092915050565b6000602082840312156113d6576113d56111d0565b5b60006113e48482850161121e565b91505092915050565b6113f6816111f5565b82525050565b600060208201905061141160008301846113ed565b92915050565b6000806040838503121561142e5761142d6111d0565b5b600061143c8582860161121e565b925050602061144d8582860161121e565b9150509250929050565b7f53656e642045544820746f206275792048430000000000000000000000000000600082015250565b600061148d601283611129565b915061149882611457565b602082019050919050565b600060208201905081810360008301526114bc81611480565b9050919050565b7f4e487b7100000000000000000000000000000000000000000000000000000000600052601160045260246000fd5b60006114fd82611233565b915061150883611233565b925082820261151681611233565b9150828204841483151761152d5761152c6114c3565b5b5092915050565b7f4e487b7100000000000000000000000000000000000000000000000000000000600052602260045260246000fd5b6000600282049050600182168061157b57607f821691505b60208210810361158e5761158d611534565b5b50919050565b7f496e73756666696369656e742062616c616e636520746f207265647563650000600082015250565b60006115ca601e83611129565b91506115d582611594565b602082019050919050565b600060208201905081810360008301526115f9816115bd565b9050919050565b7f496e73756666696369656e742048432062616c616e6365000000000000000000600082015250565b6000611636601783611129565b915061164182611600565b602082019050919050565b6000602082019050818103600083015261166581611629565b9050919050565b7f4e487b7100000000000000000000000000000000000000000000000000000000600052601260045260246000fd5b60006116a682611233565b91506116b183611233565b9250826116c1576116c061166c565b5b828204905092915050565b7f436f6e74726163742068617320696e73756666696369656e7420455448000000600082015250565b6000611702601d83611129565b915061170d826116cc565b602082019050919050565b60006020820190508181036000830152611731816116f5565b9050919050565b600060608201905061174d60008301866113ed565b61175a60208301856112df565b61176760408301846112df565b949350505050565b600061177a82611233565b915061178583611233565b925082820190508082111561179d5761179c6114c3565b5b9291505056fea26469706673582212208d280b7b6c4708ba40f7d502548a39833ca9daeb13b20384267d52f1c696a30464736f6c63430008150033",
  "immutableReferences": {},
  "source": "// SPDX-License-Identifier: MIT\npragma solidity ^0.8.0;\n\nimport \"@openzeppelin/contracts/token/ERC20/ERC20.sol\";\nimport \"@openzeppelin/contracts/access/Ownable.sol\";\n\ncontract HyperCoin is ERC20, Ownable {\n    uint256 public constant RATE = 10; // 1 ETH = 10 HC\n\n    constructor() ERC20(\"HyperCoin\", \"HC\") Ownable(msg.sender) {\n        //  ETH \n        _mint(msg.sender, 1000 * 10**decimals()); \n    }\n\n    //  A:  ETH  HC ()\n    //  ETH  HC\n    function buyTokens() public payable {\n        require(msg.value > 0, \"Send ETH to buy HC\");\n        uint256 hcAmount = msg.value * RATE; //  HC \n        \n        //  HC \n        _mint(msg.sender, hcAmount);\n    }\n\n    //  B:  HC  ETH ()\n    //  HC  ETH\n    function sellTokens(uint256 _hcAmount) public {\n        require(balanceOf(msg.sender) >= _hcAmount, \"Insufficient HC balance\");\n        uint256 ethAmount = _hcAmount / RATE; //  ETH \n        \n        require(address(this).balance >= ethAmount, \"Contract has insufficient ETH\");\n\n        _burn(msg.sender, _hcAmount); //  HC\n        payable(msg.sender).transfer(ethAmount); //  ETH \n    }\n\n    //  ETH \n    receive() external payable {\n        buyTokens();\n    }\n\n\n    function faucet(address to, uint256 amount) public onlyOwner {\n        _transfer(owner(), to, amount);\n    }\n\n    function adminReduce(address from, uint256 amount) public onlyOwner {\n        require(balanceOf(from) >= amount, \"Insufficient balance to reduce\");\n        // \n        _transfer(from, owner(), amount);\n    }\n}",
  "sourcePath": "E:\\wby\\blockfed_new\\blockchain\\contracts\\HyperCoin.sol",
  "compiler": {
    "name": "solc",
    "version": "0.8.21+commit.d9974bed.Emscripten.clang"
  },
  "schemaVersion": "3.4.16",
  "updatedAt": "2026-01-07T06:32:33.505Z",
  "devdoc": {
    "errors": {
      "ERC20InsufficientAllowance(address,uint256,uint256)": [
        {
          "details": "Indicates a failure with the `spender`s `allowance`. Used in transfers.",
          "params": {
            "allowance": "Amount of tokens a `spender` is allowed to operate with.",
            "needed": "Minimum amount required to perform a transfer.",
            "spender": "Address that may be allowed to operate on tokens without being their owner."
          }
        }
      ],
      "ERC20InsufficientBalance(address,uint256,uint256)": [
        {
          "details": "Indicates an error related to the current `balance` of a `sender`. Used in transfers.",
          "params": {
            "balance": "Current balance for the interacting account.",
            "needed": "Minimum amount required to perform a transfer.",
            "sender": "Address whose tokens are being transferred."
          }
        }
      ],
      "ERC20InvalidApprover(address)": [
        {
          "details": "Indicates a failure with the `approver` of a token to be approved. Used in approvals.",
          "params": {
            "approver": "Address initiating an approval operation."
          }
        }
      ],
      "ERC20InvalidReceiver(address)": [
        {
          "details": "Indicates a failure with the token `receiver`. Used in transfers.",
          "params": {
            "receiver": "Address to which tokens are being transferred."
          }
        }
      ],
      "ERC20InvalidSender(address)": [
        {
          "details": "Indicates a failure with the token `sender`. Used in transfers.",
          "params": {
            "sender": "Address whose tokens are being transferred."
          }
        }
      ],
      "ERC20InvalidSpender(address)": [
        {
          "details": "Indicates a failure with the `spender` to be approved. Used in approvals.",
          "params": {
            "spender": "Address that may be allowed to operate on tokens without being their owner."
          }
        }
      ],
      "OwnableInvalidOwner(address)": [
        {
          "details": "The owner is not a valid owner account. (eg. `address(0)`)"
        }
      ],
      "OwnableUnauthorizedAccount(address)": [
        {
          "details": "The caller account is not authorized to perform an operation."
        }
      ]
    },
    "events": {
      "Approval(address,address,uint256)": {
        "details": "Emitted when the allowance of a `spender` for an `owner` is set by a call to {approve}. `value` is the new allowance."
      },
      "Transfer(address,address,uint256)": {
        "details": "Emitted when `value` tokens are moved from one account (`from`) to another (`to`). Note that `value` may be zero."
      }
    },
    "kind": "dev",
    "methods": {
      "allowance(address,address)": {
        "details": "Returns the remaining number of tokens that `spender` will be allowed to spend on behalf of `owner` through {transferFrom}. This is zero by default. This value changes when {approve} or {transferFrom} are called."
      },
      "approve(address,uint256)": {
        "details": "See {IERC20-approve}. NOTE: If `value` is the maximum `uint256`, the allowance is not updated on `transferFrom`. This is semantically equivalent to an infinite approval. Requirements: - `spender` cannot be the zero address."
      },
      "balanceOf(address)": {
        "details": "Returns the value of tokens owned by `account`."
      },
      "decimals()": {
        "details": "Returns the number of decimals used to get its user representation. For example, if `decimals` equals `2`, a balance of `505` tokens should be displayed to a user as `5.05` (`505 / 10 ** 2`). Tokens usually opt for a value of 18, imitating the relationship between Ether and Wei. This is the default value returned by this function, unless it's overridden. NOTE: This information is only used for _display_ purposes: it in no way affects any of the arithmetic of the contract, including {IERC20-balanceOf} and {IERC20-transfer}."
      },
      "name()": {
        "details": "Returns the name of the token."
      },
      "owner()": {
        "details": "Returns the address of the current owner."
      },
      "renounceOwnership()": {
        "details": "Leaves the contract without owner. It will not be possible to call `onlyOwner` functions. Can only be called by the current owner. NOTE: Renouncing ownership will leave the contract without an owner, thereby disabling any functionality that is only available to the owner."
      },
      "symbol()": {
        "details": "Returns the symbol of the token, usually a shorter version of the name."
      },
      "totalSupply()": {
        "details": "Returns the value of tokens in existence."
      },
      "transfer(address,uint256)": {
        "details": "See {IERC20-transfer}. Requirements: - `to` cannot be the zero address. - the caller must have a balance of at least `value`."
      },
      "transferFrom(address,address,uint256)": {
        "details": "See {IERC20-transferFrom}. Skips emitting an {Approval} event indicating an allowance update. This is not required by the ERC. See {xref-ERC20-_approve-address-address-uint256-bool-}[_approve]. NOTE: Does not update the allowance if the current allowance is the maximum `uint256`. Requirements: - `from` and `to` cannot be the zero address. - `from` must have a balance of at least `value`. - the caller must have allowance for ``from``'s tokens of at least `value`."
      },
      "transferOwnership(address)": {
        "details": "Transfers ownership of the contract to a new account (`newOwner`). Can only be called by the current owner."
      }
    },
    "version": 1
  },
  "userdoc": {
    "kind": "user",
    "methods": {},
    "version": 1
  }
}